:100000000C944D020C9475020C9475020C947502BC
:100010000C9475020C9475020C9475020C94750284
:100020000C9475020C9475020C9475020C94750274
:100030000C9475020C9475020C9475020C94750264
:100040000C94560D0C9475020C94DF0B0C94B90BA8
:100050000C9475020C9475020C9475020C94750244
:100060000C94950E0C947502771DAA1DD51DED1DDF
:10007000081E241E401E581E661E911EA91EC41E68
:10008000E01E771FA31FD71FF21F0B2024203D2047
:1000900056207A20AE20E120EB20E01EF021042241
:1000A0005B227B22BA2218236723102217221A22EE
:1000B0001D2220222322262229222C222F223222F4
:1000C000352238223B22C622C922D022D322D8226E
:1000D000DD22E222E0233124D52BD52BD52BD52BC5
:1000E000D52BD52BD52BD52BD925EC250926262686
:1000F0003F265C2675268E26AB26C426E5260227DB
:100100001F273C2757276A27D52BD52BD52BD52B37
:100110009D28B028D52BD52BD52BD52BD52BD52B42
:10012000D52BD52B482A5D2A722A872A9C2AB12AE8
:10013000C62AD52BD52BD52BDB2AEE2A092B242B2F
:10014000D52BD52BD52BD52BD52BD52B482B732B9E
:10015000992BAC2B59255925392559255625592533
:100160005625592559255625592556252020202024
:100170002074696D65722020202020200020646991
:1001800073706C61792074696D6572202000202085
:100190007265736574202074696D6572202000207B
:1001A0002020202054696D6572202020202020000E
:1001B0002068756D69646974692073776974682053
:1001C0000020636F6C6C696E6720207377697468B8
:1001D000200020686F7474696E67202073776974DB
:1001E0006820002073657474696E67202072656CE6
:1001F0006179200020207365747570207365636FCA
:100200006E6420200020207365747570206D696E07
:100210007574652020002020736574757020206837
:100220006F75722020200020202073657475702067
:10023000206461792020200020207365747570206F
:10024000206D6F6E746820200020207365747570B7
:10025000202079656172202020002020202020733A
:10026000657474696E6720202020002020202020E3
:100270002054696D652020202020200062616E6B73
:1002800020004C6F61642073657474696E6720662A
:10029000726F00202066726F6D2020454550524FCE
:1002A0004D20200020204C6F6164207365747469B8
:1002B0006E6720200062616E6B20005361766520BE
:1002C00073657474696E6720746F20002020207439
:1002D0006F2020454550524F4D20202000202053B4
:1002E0006176652073657474696E67202000202034
:1002F00020434F322066616E696E672020200074B3
:10030000696D65203D2000434F322066616E206993
:100310006E74657276616C0020002020204C616E46
:1003200067756167652020200074696D65203D2038
:100330000020434F322066616E696E672074696DDC
:10034000650074203D2000202020436F6F6C696E93
:1003500067205420202020002020526F7461746593
:10036000204567672020202000200020202020201A
:10037000466163746F7220482020200020002044D2
:10038000617920496E6372656173652048200020A1
:10039000002044617920446563726561736520487B
:1003A00020000468203D20002020202044656C743B
:1003B00061204820202020200048203D20002020CF
:1003C0002048756D6964697469202020202000042C
:1003D00074203D20002020202044656C746120544E
:1003E00020202020200074203D200054656D706581
:1003F00072617475726520696E6320002020206927
:100400006E6375626174696F6E2020200020202069
:100410002053657474696E67202020202000005EE0
:10042000BCE2613FDD83C29C7E20A3FD1F41009D95
:1004300023BE46DB65F88C11AF32CA57E974000061
:100440000000240027002A000000000025002800EA
:100450002B00000000080002010000030407000058
:10046000000000000000000000002300260029001A
:10047000040404040404040402020202020203034A
:100480000303030301020408102040800102040852
:1004900010200102040810208E2F11241FBECFEF60
:1004A000D8E0DEBFCDBF13E0A0E0B1E0EAE6F7E6BA
:1004B00002C005900D92AC33B107D9F725E0ACE34B
:1004C000B3E001C01D92AC39B207E1F712E0CDE410
:1004D000D2E004C02197FE010E948733CC34D107BB
:1004E000C9F70E941E170C94B3330C940000DC0172
:1004F000ED91FC910684F785E02D41E0099581E0BE
:1005000090E0089508950895089580E090E008959A
:10051000DC01ED91FC910684F785E02D40E0099423
:1005200061E00E9488028BE39FE10197F1F7089553
:100530000F931F93CF93DF93EC01423018F08C811F
:1005400088608C834F836887222329F0413019F417
:100550008C8184608C8364E670E080E090E00E948F
:10056000100D6C8164FD31C0E881F9810684F78546
:10057000E02D42E063E0CE0109950BE416E4C801EA
:100580000197F1F7E881F9810684F785E02D42E0D3
:1005900063E0CE010995C8010197F1F7E881F9817F
:1005A0000684F785E02D42E063E0CE01099583E5FE
:1005B00092E00197F1F7E881F9810684F785E02D53
:1005C00042E062E0CE01099516C06062CE010E9451
:1005D00088028BE496E40197F1F76C816062CE01AA
:1005E0000E94880283E592E00197F1F76C816062D6
:1005F000CE010E9488026C816062CE010E94880256
:1006000084E08D836CE0CE010E948802CE010E94BE
:10061000900282E08E8366E0CE010E948802E8812B
:10062000F9810484F585E02D6FEFCE01DF91CF9144
:100630001F910F910994FF920F931F93CF93DF9314
:10064000EC01162F042FF22E8B85888B0E94A316A7
:1006500061E088890E945C1010921A04809319044A
:1006600091E0811101C090E0998B83E295E00E94B6
:10067000920A8E878989882339F01F861C8260E060
:10068000CE010E960E94C9162F2D402F612FCE014C
:10069000DF91CF911F910F91FF900C9498020C94D1
:1006A000E0300C94D830FF920F931F93CF93DF93D9
:1006B000109269031092680381E10E94F90CF82EF0
:1006C00062E370E080E090E00E94100D81E10E9402
:1006D000F90C8C0162E370E080E090E00E94100D64
:1006E00081E10E94F90CEC0162E370E080E090E0AF
:1006F0000E94100DC8018F0D911D8C0F9D1FC3E02E
:10070000D0E0BE010E9451336093BB0361EC72E004
:1007100086E894E00E94B70B4091BB0350E060E094
:1007200070E02AE086E894E00E946E0B64E072E0DC
:1007300086E894E00E94590B60EE72E086E894E04F
:100740000E94590B8091BB03843118F481E090E042
:100750001CC09BE9980F9B3318F482E090E015C011
:1007600097ED980F9D3128F4D0936903C0936803E7
:1007700015C096E1980F963018F484E090E005C01B
:10078000895C8D3138F485E090E090936903809323
:10079000680304C01092690310926803DF91CF913F
:1007A0001F910F91FF900895CF92DF92EF92FF92E9
:1007B0000F931F93CF938091640390916503A09151
:1007C0006603B09167034091B7035091B8036091FD
:1007D000B9037091BA038C019D01041B150B260B04
:1007E000370B053611052105310508F48EC08093BD
:1007F000B7039093B803A093B903B093BA030E94D0
:10080000E413882389F1809149058B3029F160F147
:100810008551823048F56091430570E080E090E0BA
:100820000E94083220E030E040E853E40E94BF32EA
:100830006B017C016091440570E080E090E00E94D3
:100840000A32A70196010E94EF302DEC3CEC4CECF3
:100850005DE30E94BF320CC06091430570E080E010
:1008600090E00E94083204C060E070E080EC9FE7F6
:100870000E94D23170935B0360935A030E94E41389
:100880008823B9F1809149058B3029F090F1855189
:10089000823048F02EC06091450570E080E090E025
:1008A0000E9408322AC0C09145056C2F6F7770E016
:1008B00080E090E00E940A3220E030E040E853E41B
:1008C0000E94BF326B017C016091460570E080E0C0
:1008D00090E00E940A32A70196010E94EF302DECB1
:1008E0003CEC4CEC5DE30E94BF32C7FF06C0905861
:1008F00004C060E070E080EC9FE760935603709363
:1009000057038093580390935903CF911F910F91F0
:10091000FF90EF90DF90CF9008950F931F93CF93A8
:10092000DF93CDB7DEB761970FB6F894DEBF0FBE89
:10093000CDBF8091640390916503A0916603B0914F
:1009400067034091B3035091B4036091B503709174
:10095000B6038C019D01041B150B260B370B0536C6
:1009600011052105310508F4A9C08093B3039093C4
:10097000B403A093B503B093B60361E08BE00E948B
:10098000110C64E670E080E090E00E94100D0E947F
:10099000201364E670E080E090E00E94100D0E9459
:1009A0002013E0918005F091810513861586148649
:1009B000DF011B96CF0103961E928A179B07E1F772
:1009C000BE01665F7F4FCF010E949E12882341F0D7
:1009D00067E0CE010A960E94A00D9989891789F0D7
:1009E00060E070E08EEF92EC60935C0370935D03C7
:1009F00080935E0390935F0360E08BE00E94110C94
:100A00005DC080918005909181050E945E0E8823D3
:100A100009F451C0BE016F5F7F4FCE010A960E945C
:100A20005212882309F447C068E0CE0101960E9463
:100A3000A00D998589133FC02A8130E0C901982F04
:100A40008827990F990F990F698118E0619FB0016C
:100A500011249C01262B372B8A858031C9F46885A7
:100A600070E08F81AB01481B5109CA019695982F00
:100A70008827979587950E94513360517109207F8F
:100A800053E0220F331F5A95E1F7620F731F01C025
:100A9000B901613854EE75070CF4A2CF072E000C93
:100AA000880B990B0E940A3220E030E040E05CE3C2
:100AB0000E94BF3299CF60E874EEEBCF61960FB61B
:100AC000F894DEBF0FBECDBFDF91CF911F910F9184
:100AD000089520914003309141038091400190910D
:100AE000410128173907E9F48091B1039091B203CD
:100AF000892BB9F4609146017091470140916003E0
:100B000050916103649FC001659F900D749F900D8B
:100B1000112464E670E00E945133709347016093A2
:100B20004601809142019091430128173907B9F499
:100B3000409146015091470120916003309161033B
:100B4000429FC001439F900D529F900D112464E677
:100B500070E00E94513370934701609346011092F8
:100B6000B2031092B103809144019091450120910C
:100B700046013091470160915A0370915B03AC01CB
:100B800097FF02C04F5F5F4F55954795F901E41BF2
:100B9000F50B6E177F0764F460E0809130010E94CE
:100BA000110C61E08FE00E94BC0F63EE72E014C094
:100BB00097FD019695958795820F931F8617970746
:100BC0007CF461E0809130010E94110C61E08FE0C3
:100BD0000E94BC0F64E072E081E695E00C94B70BD4
:100BE00008954F925F926F927F928F929F92AF92F1
:100BF000BF92CF92DF92EF92FF9280904C01909043
:100C00004D01A0904E01B0904F0120E030E040E057
:100C10005FE3609148017091490180914A01909190
:100C20004B010E94BF322B013C01C0905C03D0906D
:100C30005D03E0905E03F0905F039B01AC01C50192
:100C4000B4010E94EE30A70196010E94BA32181634
:100C500064F460E0809134010E94110C61E08EE048
:100C60000E94BC0F65EE72E03DC0A3019201C50178
:100C7000B4010E94EF309B01AC01C701B6010E9494
:100C8000BA3287FD3FC061E0809134010E94110CAF
:100C900020E030E040E05FE360914801709149015D
:100CA00080914A0190914B010E94BF3220914C01EA
:100CB00030914D0140914E0150914F010E94EF3013
:100CC00020915C0330915D0340915E0350915F037E
:100CD0000E94BA321816B4F461E08EE00E94BC0F94
:100CE00064E072E081E695E0FF90EF90DF90CF90B6
:100CF000BF90AF909F908F907F906F905F904F903C
:100D00000C94B70BFF90EF90DF90CF90BF90AF9017
:100D10009F908F907F906F905F904F9008954F922B
:100D20005F926F927F928F929F92AF92BF92CF927B
:100D3000DF92EF92FF9220E030E040E05FE36091CD
:100D400048017091490180914A0190914B010E94A4
:100D5000BF322B013C0180903A0190903B01A09062
:100D60003C01B0903D01C0905C03D0905D03E090E9
:100D70005E03F0905F03A50194010E94EF30A7018C
:100D800096010E945B3118163CF081E090E0909350
:100D9000B0038093AF0312C0A3019201C501B40157
:100DA0000E94EE309B01AC01C701B6010E945B318D
:100DB00087FF04C01092B0031092AF032091360158
:100DC000309137012130310509F068C08091AD03C1
:100DD0009091AE03009799F1019709F05FC080915F
:100DE000640390916503A0916603B09167034091FD
:100DF000A9035091AA036091AB037091AC036C01FD
:100E00007D01C41AD50AE60AF70A40913F055091C0
:100E1000400560914105709142054C155D056E05D8
:100E20007F05E0F51092AE031092AD038093A50309
:100E30009093A603A093A703B093A8032FC080911B
:100E4000640390916503A0916603B091670340919C
:100E5000A5035091A6036091A7037091A8036C01AC
:100E60007D01C41AD50AE60AF70A40913B05509164
:100E70003C0560913D0570913E054C155D056E0584
:100E80007F0560F43093AE032093AD038093A903F4
:100E90009093AA03A093AB03B093AC038091AF03EC
:100EA0009091B003019731F08091AD039091AE0322
:100EB000019761F460E0809132010E94110C61E0C1
:100EC0008DE00E94BC0F67EE72E00BC061E0809184
:100ED00032010E94110C61E08DE00E94BC0F64E0C1
:100EE00072E081E695E0FF90EF90DF90CF90BF90A9
:100EF000AF909F908F907F906F905F904F900C94E9
:100F0000B70B2091400330914103809140019091B3
:100F100041012817390724F060E085E00E94110C98
:100F20002091400330914103809140019091410113
:100F3000821793072CF061E0809134010C94110C1E
:100F40000895CF93DF9380E10E94F90CD82F80930E
:100F5000A2038091A1030E94F90CC82F8093A103E2
:100F600068EC70E080E090E00E94100DD23310F049
:100F7000C23338F481E090E09093A00380939F0304
:100F800004C01092A00310929F0380919F03909140
:100F9000A003019739F180E10E94F90CD82F8093CA
:100FA000A2038FE00E94F90CC82F8093A10368EC84
:100FB00070E080E090E00E94100DD23310F0C23358
:100FC00038F481E090E09093A00380939F0304C0E5
:100FD0001092A00310929F0380919F039091A00311
:100FE000892BF1F50E9492110E948D040E94D40376
:100FF0000E948F060E94F1050E9469050E9453031A
:101000008091680390916903059751F18091500197
:10101000909151018130910589F461E080E00E9456
:10102000BC0F69EE72E081E695E00E94B70B62EEBC
:1010300074E08DE790E00E942A1512C0892B81F49C
:1010400061E080E00E94BC0F69EE72E081E695E00D
:101050000E94B70B62EE74E08DE790E00E940D15E0
:1010600061E080E00E94BC0F6AEF72E081E695E0EB
:101070000E94B70B20E030E040E050E060E070E01C
:1010800080E090E00E94EE1480E090E00E94DB148B
:1010900064E670E080E090E00E94100D80915001C5
:1010A000909151018130910529F4109251011092D3
:1010B000500108C0892B31F481E090E090935101F8
:1010C00080935001DF91CF91089560913E0170911E
:1010D0003F016115710581F188E190E00E94513373
:1010E00020910A0430E04091090480E090E0281744
:1010F0003907E9F441111BC06BE073E086E894E026
:101100000E94B70B8091A3039091A403892B31F423
:1011100066E173E086E894E00E94B70B0E94A107A5
:1011200081E090E09093A4038093A30305C0860F11
:10113000971F88319105DCF280910904882321F002
:101140001092A4031092A3030895009719F0019739
:1011500041F0089561E08FE00E94BC0F62EF71E002
:1011600006C061E08FE00E94BC0F6EE273E081E692
:1011700095E00C94B70BE8E0F4E066817781605D60
:10118000774070933D0360933C03858190E090939A
:101190003F0380933E03848190E0909343038093C8
:1011A0004203828190E090934503809344038181C0
:1011B00090E09093470380934603808190E0909362
:1011C00049038093480388E790E00E944F0364E658
:1011D00070E080E090E00E94100D60913E0389E78E
:1011E00090E00E944F0364E670E080E090E00E948F
:1011F000100D609142038AE790E00E944F0364E67D
:1012000070E080E090E00E94100D609144038BE755
:1012100090E00E944F0364E670E080E090E00E945E
:10122000100D609146038CE790E00E944F0364E646
:1012300070E080E090E00E94100D609148038DE71F
:1012400090E00E944F0364E670E080E090E00E942E
:10125000100D1092B2031092B1030895CF92DF9255
:10126000EF92FF920F931F93CF93DF936C017A015C
:101270008B01C0E0D0E0CE15DF0581F0D8016D9183
:101280008D01D601ED91FC910190F081E02DC60118
:101290000995892B11F02196EECF7E01C701DF91D0
:1012A000CF911F910F91FF90EF90DF90CF90089515
:1012B000FC01538D448D252F30E0842F90E0821B5C
:1012C000930B541710F0CF96089501970895FC01E1
:1012D000918D828D981761F0828DDF01A80FB11D6D
:1012E0005D968C91928D9F5F9F73928F90E0089591
:1012F0008FEF9FEF0895FC01918D828D981731F04B
:10130000828DE80FF11D858D90E008958FEF9FEF9E
:101310000895FC01918D228D892F90E0805C9F4F74
:10132000821B91098F739927089586E894E00E94A3
:10133000890921E0892B09F420E0822F0895FC011E
:10134000848DDF01A80FB11DA35ABF4F2C91848D4E
:1013500090E001968F739927848FA689B7892C9383
:10136000A089B1898C91837080648C93938D848DD6
:10137000981306C00288F389E02D80818F7D8083D9
:101380000895EF92FF920F931F93CF93DF93EC0199
:1013900081E0888F9B8D8C8D981305C0E889F98931
:1013A000808185FD26C0F62E0B8D10E00F5F1F4F4C
:1013B0000F731127E02E8C8DE8120CC00FB607FCBE
:1013C000FACFE889F989808185FFF5CFCE010E94A7
:1013D0009F09F1CF8B8DFE01E80FF11DE35AFF4FFE
:1013E000F0829FB7F8940B8FEA89FB898081806235
:1013F0000AC09FB7F894EE89FF896083E889F9896C
:1014000080818370806480839FBF81E090E0DF9162
:10141000CF911F910F91FF90EF900895CF93DF939D
:10142000EC01888D8823C9F0EA89FB89808185FDDC
:1014300005C0A889B9898C9186FD0FC00FB607FC3D
:10144000F5CF808185FFF2CFA889B9898C9185FF7E
:10145000EDCFCE010E949F09E7CFDF91CF91089594
:1014600080E090E0892B29F00E94950981110C946D
:10147000000008953FB7F89480910404909105040A
:10148000A0910604B091070426B5A89B05C02F3F84
:1014900019F00196A11DB11D3FBFBA2FA92F982F9A
:1014A0008827820F911DA11DB11DBC01CD0142E015
:1014B000660F771F881F991F4A95D1F7089585ED0C
:1014C0008093BC008091BC0084FDFCCF109261042D
:1014D0000895613298F420916104243089F4609376
:1014E000DC03282FACEBB3E0FC018E2F821B8617A8
:1014F00018F481918D93F9CF80E0089581E00895EB
:1015000082E008950895E0911A0480911904E81783
:1015100030F4F0E0E55EFB4F808190E008958FEFBE
:101520009FEF089590911A0480911904981750F430
:10153000E92FF0E0E55EFB4F208130E09F5F909364
:101540001A0402C02FEF3FEFC901089580911904DA
:1015500090E020911A04821B91090895CF92DF92A6
:10156000EF92FF920F931F93CF93DF937C01CB01F8
:101570008A0120916204222389F0EB016B01C40EE1
:10158000D51ECC15DD0569F06991D701ED91FC916F
:101590000190F081E02DC7010995F3CF642F0E94DF
:1015A000690AC801DF91CF911F910F91FF90EF90D1
:1015B000DF90CF900895CF93DF931F92CDB7DEB722
:1015C0006983209162042223D1F020918504203286
:1015D00040F021E030E0FC013383228380E090E0A2
:1015E00015C080916304E82FF0E0EC59FB4F99811E
:1015F00090838F5F809363048093850405C061E0CE
:10160000CE0101960E94690A81E090E00F90DF917F
:10161000CF91089521E001C0220F6A95EAF7DC011D
:101620001C962C931C971A965C934E931997ED91E8
:10163000FC910484F585E02D60E009940E94AE33AE
:101640000F931F93CF93DF93062F0F70423019F43F
:1016500040E0602F0EC0142FEC0170E084E075951F
:1016600067958A95E1F7CE010E94EE16412F602F13
:10167000CE01DF91CF911F910F910C94EE16FC01DA
:1016800084858823A9F0218532852115310519F437
:10169000611106C007C02130310521F4611102C07B
:1016A000858701C015866585CF010E960C94C916F5
:1016B00008956115710579F0FB0101900020E9F7AB
:1016C0003197AF01461B570BDC01ED91FC91028075
:1016D000F381E02D099480E090E008958F929F922D
:1016E000AF92BF92EF92FF920F931F93CF93DF932E
:1016F000CDB7DEB7A1970FB6F894DEBF0FBECDBF52
:101700007C01FA01CB0119A2223008F42AE08E01F3
:101710000F5D1F4F822E912CA12CB12CBF01A50172
:1017200094010E946533F901CA01015011096A3020
:1017300014F4605D01C0695CD8016C93232B242BE9
:10174000252B61F7B801C7010E94590BA1960FB66E
:10175000F894DEBF0FBECDBFDF91CF911F910F91E7
:10176000FF90EF90BF90AF909F908F9008950C9452
:10177000590B1F920F920FB60F9211242F933F9384
:101780004F935F936F937F938F939F93AF93BF9389
:10179000EF93FF9386E894E00E949F09FF91EF91F9
:1017A000BF91AF919F918F917F916F915F914F9179
:1017B0003F912F910F900FBE0F901F9018951F9281
:1017C0000F920FB60F9211242F938F939F93EF9345
:1017D000FF93E0919604F09197048081E0919C043E
:1017E000F0919D0482FD12C0908180919F048F5FD3
:1017F0008F732091A004821751F0E0919F04F0E0D4
:10180000EA57FB4F958F80939F0401C08081FF9121
:10181000EF919F918F912F910F900FBE0F901F907E
:10182000189590E0FC01EE5AFB4F2491FC01EC5717
:10183000FB4F3491FC01E059FB4FE491EE2309F496
:101840003CC0222339F1233091F038F42130A9F043
:10185000223001F584B58F7D12C0273091F02830F9
:10186000A1F02430B9F4809180008F7D03C0809175
:1018700080008F77809380000DC084B58F7784BD02
:1018800009C08091B0008F7703C08091B0008F7D38
:101890008093B000F0E0EE0FFF1FE85BFB4FA591D7
:1018A000B4919FB7F894611104C08C91309538239E
:1018B00002C0EC913E2B3C939FBF0895CF93DF93E2
:1018C00090E0FC01EC57FB4F2491FC01E059FB4FE9
:1018D0008491882361F190E0880F991FFC01E25CFC
:1018E000FB4FC591D491FC01E85BFB4FA591B491EE
:1018F000611109C09FB7F89488812095822388835D
:10190000EC912E230BC0623061F49FB7F89488816C
:10191000322F309583238883EC912E2B2C939FBFFD
:1019200006C08FB7F894E8812E2B28838FBFDF91F4
:10193000CF9108951F93CF93DF93182FEB0161E0B0
:101940000E945E0C209711F460E004C0CF3FD105E7
:1019500039F461E0812FDF91CF911F910C94110C2C
:10196000E12FF0E0EE5AFB4FE491E330F9F048F458
:10197000E130B9F0E230A1F584B5806284BDC8BD24
:1019800034C0E730E9F0E83019F1E43049F58091EE
:101990008000806280938000D0938B00C0938A0087
:1019A00024C084B5806884BDC7BD1FC080918000FD
:1019B000806880938000D0938900C093880015C010
:1019C0008091B00080688093B000C093B3000DC0D8
:1019D0008091B00080628093B000C093B40005C0D5
:1019E000C038D1050CF0B5CFAFCFDF91CF911F91AB
:1019F00008958E3008F08E508770806480937C004C
:101A000080917A00806480937A0080917A0086FDCC
:101A1000FCCF809178002091790090E0922B08957E
:101A20008F929F92AF92BF92CF92DF92EF92FF92EE
:101A30006B017C010E943A0A4B015C01C114D10484
:101A4000E104F104F1F00E943A0ADC01CB018819AB
:101A50009909AA09BB09883E9340A105B10570F315
:101A600021E0C21AD108E108F10888EE880E83E06F
:101A7000981EA11CB11CC114D104E104F10419F792
:101A8000DDCFFF90EF90DF90CF90BF90AF909F9011
:101A90008F9008952FB7F89460910004709101041D
:101AA00080910204909103042FBF08951F920F921A
:101AB0000FB60F9211242F933F938F939F93AF9361
:101AC000BF938091000490910104A0910204B09111
:101AD00003043091FF0323E0230F2D3720F40196F8
:101AE000A11DB11D05C026E8230F0296A11DB11D41
:101AF0002093FF038093000490930104A0930204B9
:101B0000B09303048091040490910504A09106040D
:101B1000B09107040196A11DB11D80930404909318
:101B20000504A0930604B0930704BF91AF919F9161
:101B30008F913F912F910F900FBE0F901F9018958E
:101B4000DC0180E0615098F02D91982F9227E92FC9
:101B5000EF70F0E0E25EFB4F249192959F70E92FC9
:101B6000F0E0E25DFB4FE491822F8E27EBCF0895EA
:101B7000FC0190810180F281E02DF8948181892B14
:101B800081832281892F809528232283A7E0B0E0DA
:101B90001197F1F7218182238183A3E2B0E01197AD
:101BA000F1F780817894EFECF0E03197F1F798232A
:101BB00081E009F480E00895FC0190810180F281C8
:101BC000E02D892F809560FF12C0F8942281822336
:101BD00082838181892B8183A3E2B0E01197F1F7A1
:101BE0008281982B9283789487ED90E011C0F894CD
:101BF0002281822382838181892B8183AFEFB0E0B0
:101C00001197F1F78281982B928378948FE090E07E
:101C10000197F1F70895DF92EF92FF920F931F93D0
:101C2000CF93DF93EC01D62EE42E08E010E0FF24E2
:101C3000F39461E08D2D8F2109F460E0CE010E94C4
:101C4000DC0DFF0C01501109A1F7E11010C0F89450
:101C5000E981FA8191818881809589238183E98155
:101C6000FA81928188818095892382837894DF919B
:101C7000CF911F910F91FF90EF90DF900895EF9219
:101C8000FF920F931F93CF93DF938C017B0140E072
:101C900065E50E940B0EE70188E0E80EF11C6991F2
:101CA00040E0C8010E940B0ECE15DF05C1F7DF91A1
:101CB000CF911F910F91FF90EF900895DC012C912F
:101CC0001196ED91FC911297F8948181922F909545
:101CD0008923818378948DE743E050E0815021F19E
:101CE000DA011197F1F730813223C1F3F894828140
:101CF000892382838181822B81837894ABE7B7E04B
:101D00001197F1F7F89481819823918383E191E011
:101D10000197F1F78081282381E009F080E0789431
:101D2000E3E6F6E03197F1F708951F920F920FB6B0
:101D30000F9211242F933F934F935F936F937F9351
:101D40008F939F93AF93BF93EF93FF938091B900CD
:101D5000887F803609F49CC068F5883209F45BC03E
:101D600090F4803109F454C038F4882309F4EFC0AA
:101D7000883009F44DC0EFC0883109F44CC080327E
:101D800009F45DC0E8C0803409F468C048F48033C9
:101D900009F455C0883309F0DEC080935F04D1C0D8
:101DA000803509F44FC0883509F45DC0883409F0E6
:101DB000D2C0CFC0883909F4C0C0A8F4883709F46C
:101DC00067C038F4883609F463C0803709F460C00E
:101DD000C2C0883809F4B1C0803909F45FC08038C6
:101DE00009F0B9C05BC0803B09F481C038F4803A87
:101DF00009F466C0883A09F47AC0ADC0803C09F4A1
:101E0000A0C0883C09F49DC0883B09F483C0A3C0EE
:101E100080913C0410C090915E0480915D049817FD
:101E200070F5E0915E0481E08E0F80935E04F0E037
:101E3000E35CFB4F80818093BB0085EC7FC0809387
:101E40005F0487C0E0915E0481E08E0F80935E04A2
:101E50008091BB00F0E0E35CFB4F808390915E04D7
:101E600080915D0467C0E0915E0481E08E0F8093F5
:101E70005E048091BB00F0E0E35CFB4F80838091C7
:101E80006004811166C081E080933B0484EA5AC0FB
:101E900083E0809361041092FE03CFCF8091FE0314
:101EA000803208F04AC0E091FE0381E08E0F8093FB
:101EB000FE038091BB00F0E0E252FC4F8083BDCF77
:101EC0008091FE03803230F4E091FE03F0E0E252B4
:101ED000FC4F10820E945F0A6091FE0370E08EED5D
:101EE00093E0E0E0F0E009951092FE032AC084E060
:101EF000809361041092DD031092DC03E0E0F0E0D7
:101F000009958091DC03811105C081E08093DC0399
:101F10001092BC03E091DD0381E08E0F8093DD031E
:101F2000F0E0E454FC4F80818093BB009091DD038E
:101F30008091DC03981708F480CF85E88093BC007B
:101F40000AC085EC8093BC001092610404C010921A
:101F50005F040E945F0AFF91EF91BF91AF919F9143
:101F60008F917F916F915F914F913F912F910F9042
:101F70000FBE0F901F9018950F931F93CF93DF9371
:101F8000CDB7DEB728970FB6F894DEBF0FBECDBF32
:101F900000917201109173012091740130917501CB
:101FA0000D831E832F83388700917601109177016E
:101FB000209178013091790109831A832B833C8326
:101FC00090916805691710F06FEF690F40916905EE
:101FD000262F30E0FE01E20FF31F403121F4943050
:101FE00011F4618101C06581680F606881E695E048
:101FF00028960FB6F894DEBF0FBECDBFDF91CF910C
:102000001F910F910C94880230918504313208F0B1
:1020100047C0809161048111FCCF9091840422E03B
:102020002093610421E0209360042FEF20935F044C
:1020300010925E0430935D04E4E6F4E0ADE3B4E0B6
:1020400020E0321721F041914D932F5FFACF10928B
:102050003C0420913C04990F922B90933C04909166
:102060003B04913041F410923B0490913C049093D6
:10207000BB0095EC01C095EE9093BC00909161047B
:102080009230E1F390915F049F3F79F080915F047B
:10209000803241F080915F04803331F084E005C0EC
:1020A00081E003C082E001C083E0109263041092DB
:1020B0008504109262040895909161049111FCCFFF
:1020C00091E090936104909360042FEF20935F045C
:1020D00010925E04260F20935D0490933C0490912F
:1020E0003C04880F892B80933C0480913B04813011
:1020F00041F410923B0480913C048093BB0085EC3A
:1021000001C085EE8093BC00809161048130E1F3D1
:1021100080915E04861710F460915E04ADE3B4E034
:10212000EBE1F4E080E0861721F09D9191938F5FC1
:10213000FACF0895813208F080E2682F88E60E9485
:102140005C1010921A048093190408951F93CF9382
:10215000DF9311E01093620488E680938404109268
:1021600063041092850460E083E295E00E94DB0A3C
:102170000E94041081E090E00E949A1083E295E0B2
:102180000E94920AC8E0D4E08F778883109362049B
:10219000109263041092850460E083E295E00E944F
:1021A000DB0A688183E295E00E94DB0ADF91CF9130
:1021B0001F910C940410EF92FF920F931F93E8E08D
:1021C000F4E023853485A8E1B0E00E948D332281BC
:1021D0007B018C01E20EF11C011D111DA80197016C
:1021E000ACE3B0E00E94A33321817B018C01E20EBD
:1021F000F11C011D111DA80197010E94A33320812C
:10220000DC01CB01820F911DA11DB11D8587968731
:10221000A787B08B1F910F91FF90EF9008950F93B8
:102220001F93CF93DF9320910E0430910F04E09120
:102230001104F09112043197C0E9D1E004E610E0F6
:10224000213D87E03807F8F021503109C90183703A
:102250009927892B31F4C901B8010E943D33892B9C
:1022600051F4C901BE010E943D33AC0191E0452B00
:1022700019F090E001C091E0892F90E083599E4FC2
:10228000E80FF91FDDCFF0931404E0931304DF91FE
:10229000CF911F910F91089540910D04242F30E0AC
:1022A0002E5F3F4F63E672E0269FC001279F900D8F
:1022B000369F900D112464E170E00E943D3320911F
:1022C0000C0430E02B553109260F371F81E04330D5
:1022D00008F480E0880F281B31098823F1F0E09191
:1022E0000E04F0910F04CF0183709927892B39F4E4
:1022F000CF0164E670E00E943D33892B59F4CF0191
:1023000060E971E00E943D33AC0191E0452B19F08A
:1023100090E001C091E0290F311D30931204209309
:1023200011040895CF93DF9381E08093620488E6DF
:1023300080938404109263041092850460E083E229
:1023400095E00E94DB0A0E94041087E090E00E9462
:102350009A1083E295E00E94920AC8E0D4E0982F98
:102360009695969596959E70292F220F220F920F83
:102370008F70890F888383E295E00E94920A982FDC
:1023800092959F708F702AE0929F800D112489830F
:1023900083E295E00E94920A982F92959F708F7029
:1023A0002AE0929F800D11248A8383E295E00E94A7
:1023B000920A982F92959F708F7081502AE0929F79
:1023C000800D11248B8383E295E00E94920A982F5E
:1023D00092959F708F702AE0929F800D11248C83BC
:1023E00083E295E00E94920A982F92959F708F70D9
:1023F0002AE0929F800D11248D8383E295E00E9454
:10240000920A982F92959F708F702AE0929F800D6C
:10241000112490E08053984F9F838E830E944C112B
:102420000E940F118B859C85069667E070E00E94E4
:102430003D338B83DF91CF910C94DB10CF92DF92F1
:10244000EF92FF92CF93DF936C01990FEE08FF0894
:10245000F7FE1BC06DE281E695E00E947702EC0179
:1024600044275527BA014C195D096E097F092AE0F6
:1024700081E695E00E946E0B8C0F9D1FDF91CF913E
:10248000FF90EF90DF90CF9008952AE0B701A6016A
:1024900081E695E0DF91CF91FF90EF90DF90CF90B4
:1024A0000C946E0BAF92BF92CF92DF92EF92FF929D
:1024B0000F931F93CF93DF938B01BC018091800515
:1024C000909181050E943F0E40E06EEB8091800567
:1024D000909181050E940B0EE801680189E0C80E09
:1024E000D11CA0908005B090810588E0E82EF12CE9
:1024F00010E001E0C5010E94B80D8111102B000F02
:1025000081E0E81AF108B1F71993CC16DD0649F716
:1025100080918005909181050E945E0E91E081304E
:1025200009F090E0892FDF91CF911F910F91FF90DB
:10253000EF90DF90CF90BF90AF900895BF92CF9271
:10254000DF92EF92FF920F931F93CF93DF93EC01F3
:102550006B018D85811105C0CE010E945E0E811137
:1025600005C01B861D861C8680E060C040E060EFD1
:10257000CE010E940B0E01E0E12CB12C11E0CE0146
:102580000E94B80DF82ECE010E94B80D91E0F9120C
:1025900003C08130B1F434C02E2D30E0F8121BC0DE
:1025A0008B85181738F4FE01E20FF31F8381802317
:1025B00041F402C0811729F0F12C193058F41C871E
:1025C00009C0FE01EE0DF11D8381802B8383FF2462
:1025D000F39409C0B12EFE01E20FF31F9381802F07
:1025E0008095892383836F2DCE010E94DC0D1F5FB0
:1025F000000F11F4E39401E087E08E1508F0BFCFDF
:10260000113408F4AECFBB86B11002C081E08D87D3
:102610008B81882309F4A5CFDE011396F6012B9652
:102620008D918193CA17DB07D9F781E0DF91CF91B4
:102630001F910F91FF90EF90DF90CF90BF90089582
:102640008F929F92AF92BF92CF92DF92EF92FF92C2
:10265000CF93DF9380918005909181050E945E0E5B
:1026600040E06CEC80918005909181050E940B0EFA
:1026700040917A0564E480918005909181050E94E3
:102680000B0E80917C05882309F445C0E0917B0501
:10269000E950E33040F4F0E0EE0FFF1FE658FE4F44
:1026A000C081D18102C0CEEED2E080917D05882329
:1026B00011F180917A0581111EC00E944A0D4B01D3
:1026C0005C016E01DD0FEE08FF088091800590919E
:1026D00081050E94B80D8130F1F00E944A0DDC01A5
:1026E000CB018C199D09AE09BF0988159905AA056A
:1026F000BB0558F310C0BE01DD0F880B990BDF91AD
:10270000CF91FF90EF90DF90CF90BF90AF909F90D0
:102710008F900C94100DDF91CF91FF90EF90DF9090
:10272000CF90BF90AF909F908F9008958F929F927F
:10273000AF92BF92CF92DF92EF92FF92CF93DF934F
:10274000A0914A05882311F03A2F01C030E0809112
:102750004B0590E0880F991F8A599B4FC0905005F8
:10276000D0905105E0905205F090530540E050E0C4
:10277000BA01FC01C591D49128812A23231314C0E6
:102780004A015B012FEF821A920AA20AB20A4C1583
:102790005D056E057F0518F4B501A401EACF30E0B0
:1027A00020E080E090E003C0342F252FCB01632F81
:1027B000722FDF91CF91FF90EF90DF90CF90BF907D
:1027C000AF909F908F900895CF92DF92EF92FF92FB
:1027D0000F931F93CF93DF93CDB7DEB7C054D14093
:1027E0000FB6F894DEBF0FBECDBF0E944A0D009118
:1027F0004C0510914D0520914E0530914F056B0110
:102800007C01C01AD10AE20AF30A40EDC41647E07F
:10281000D406E104F10418F480915405BCC060931F
:102820004C0570934D0580934E0590934F05109283
:1028300047051092460510924505109244051092E6
:10284000430561E0809148050E94110C6AEF70E039
:1028500080E090E00E94100D61E0809148050E94A8
:102860005E0C60E0809148050E94110C64E170E00C
:1028700080E090E00E94100DF89461E0809148059E
:102880000E94110C8BE990E00197F1F762E08091D2
:1028900048050E945E0C83E290E00197F1F780E02A
:1028A0000E949613672B682B692B21F41092540514
:1028B00078943EC081E00E949613672B682B692BA9
:1028C000A9F38E010F5F1F4F6E018FEBC81A8EEFB9
:1028D000D80A780180E00E949613F7016083718323
:1028E0008283938381E00E949613F701648375834A
:1028F00086839783F8E0EF0EF11CEC14FD0451F78A
:10290000789420E030E0F801C080D180E280F3804C
:102910004481558166817781C114D104E104F104B9
:1029200029F0411551056105710521F410925405F6
:1029300080E031C0F90183E0F595E7958A95E1F7EC
:10294000ED5BFA4F8081880FC416D506E606F706C0
:1029500008F4816080832F5F3F4F085F1F4F28324C
:10296000310589F62091470530E04091430580917B
:10297000440590E0840F911D40914505840F911D01
:1029800040914605840F911D99272817390771F644
:1029900081E080935405C05CDE4F0FB6F894DEBF33
:1029A0000FBECDBFDF91CF911F910F91FF90EF90A0
:1029B000DF90CF9008950F931F93CF93DF938C01F7
:1029C000CFE2D5E0BC018C810E949A0CB8018A85C7
:1029D000DF91CF911F910F910C949A0CFF920F935E
:1029E0001F93CF93DF93F62E042F122FCFE2D5E063
:1029F000682F88810E94110C6F2D8A810E94110C12
:102A0000602F8E810E94110C612F8885DF91CF91FC
:102A10001F910F91FF900C94110C0F931F93CF9364
:102A2000DF938C01EB0121E030E040E050E060E01A
:102A300070E081E090E00E94EE14C8010E94DB1477
:102A4000BE01DD0F880B990BDF91CF911F910F9184
:102A50000C94100D0F931F93CF93DF938C01EB0118
:102A600020E030E041E050E061E070E080E090E0A4
:102A70000E94EE14C8010E94DB14BE01DD0F880B1A
:102A8000990BDF91CF911F910F910C94100D0F9323
:102A90001F93CF93DF938C01C0E0D0E0F801EC0FDF
:102AA000FD1F6491662341F081E695E00E94770264
:102AB000892B11F02196F2CFCE01DF91CF911F919A
:102AC0000F9108954F925F926F927F928F929F9293
:102AD000AF92BF92CF92DF92EF92FF92CF936B01B2
:102AE0007C019B01AC010E942C33882319F060E328
:102AF00073E027C046015701E894B7F82FEF3FEF86
:102B00004FE75FE7C501B4010E942C3381110DC06E
:102B10002FEF3FEF4FE75FE7C501B4010E945B3144
:102B200018161CF464E373E00CC02FEF3FEF4FE77F
:102B30005FE4C701B6010E94BA3218169CF468E33C
:102B400073E081E695E0CF91FF90EF90DF90CF901A
:102B5000BF90AF909F908F907F906F905F904F90BD
:102B60000C94590B2FEF3FEF4FE75FECC701B60115
:102B70000E945B3187FDE3CF20E030E0A901C7016F
:102B8000B6010E945B3187FF0BC06DE281E695E0E4
:102B90000E9477025C01F7FAF094F7F8F09402C013
:102BA000A12CB12C2AE037ED43EA5BE3C701B60163
:102BB0000E94EF302B013C010E94D9316B017C0156
:102BC0000E9408329B01AC01C301B2010E94EE30A9
:102BD0002B013C012AE0B701A60181E695E00E94A5
:102BE0006E0B7C01EA0CFB1C6EE281E695E00E9414
:102BF0007702E80EF91EC3E0C15029F120E030E071
:102C000040E251E4C301B2010E94BF322B013C01FA
:102C10000E94D9314B01A12CB12C2AE0B501A401AD
:102C200081E695E00E946E0BE80EF91EC501B40125
:102C30000E9408329B01AC01C301B2010E94EE3038
:102C40002B013C01D9CFC701CF91FF90EF90DF90CE
:102C5000CF90BF90AF909F908F907F906F905F903C
:102C60004F900895EF92FF920F931F93CF93DF93AE
:102C70008B01877098E0899FB0011124606481E620
:102C800095E00E94880283E790E00197F1F7E80160
:102C9000085F1F4F8BE9E82EF12C699181E695E0E2
:102CA0000E947702C7010197F1F7C017D107A9F772
:102CB000DF91CF911F910F91FF90EF9008950F93A7
:102CC0001F93CF93DF93CDB7DEB729970FB6F89454
:102CD000DEBF0FBECDBF8C01809180059091810534
:102CE0000E945E0E882309F1BE016F5F7F4FC8010D
:102CF0000E9452128823C9F068E0CE0101960E941A
:102D0000A00D9985891311C08D818F3361F020F456
:102D10008F3159F489E00CC08F3519F08F3739F0B5
:102D200004C08BE005C08AE003C080E001C08CE0F5
:102D300029960FB6F894DEBF0FBECDBFDF91CF91BD
:102D40001F910F91089510921A0410921904109275
:102D50006304109285041092610481E08093600402
:102D600010923B0461E082E10E94110C61E083E17A
:102D70000E94110CE9EBF0E080818E7F80838081DE
:102D80008D7F808388E48093B80085E48093BC00C5
:102D90000895FC0183818823C1F0962F618160959D
:102DA00069236083828191E090936204809384041C
:102DB000109263041092850483E295E00E94DB0A7E
:102DC0000E940410282F30E002C020E030E081E0B3
:102DD00090E0232B11F080E090E00895EF92FF92B5
:102DE0000F931F93CF938C01FC0184E0C0E060FF40
:102DF00002C09589C92B6695815031968111F7CF14
:102E0000413011F4F8014489F8018585C82BC42BA1
:102E10007801FEE0EF0EF11CF80162896C2BC7010E
:102E20000E94C916F801628960956C23C701CF9191
:102E30001F910F91FF90EF900C94C916CF93DF93E1
:102E4000CDB7DEB728970FB6F894DEBF0FBECDBF63
:102E5000789484B5826084BD84B5816084BD85B575
:102E6000826085BD85B5816085BD80916E00816081
:102E700080936E0010928100809181008260809327
:102E80008100809181008160809381008091800029
:102E90008160809380008091B10084608093B10054
:102EA0008091B00081608093B00080917A0084604E
:102EB00080937A0080917A00826080937A0080917A
:102EC0007A00816080937A0080917A008068809394
:102ED0007A001092C10020E042E060E181E695E0D6
:102EE0000E941B030E94A316E0919604F0919704A0
:102EF00082E08083E0919204F09193041082E0914B
:102F00009404F09195048FEC808310929E04E091DC
:102F10009A04F0919B0486E08083E0919804F091FC
:102F20009904808180618083E0919804F0919904F4
:102F3000808188608083E0919804F0919904808179
:102F400080688083E0919804F091990480818F7D5E
:102F50008083E0918005F0918105138615861486A3
:102F6000DF011B9633961E92EA17FB07E1F71092DA
:102F70007E0510927F0501E0BE016F5F7F4F80915B
:102F80008005909181050E949E12882309F46CC0EF
:102F900067E0CE0101960E94A00D98858913ECCFC1
:102FA00080917A05811128C08091800590918105DA
:102FB0000E945E0EBE016F5F7F4F809180059091F1
:102FC00081050E943F0E40E064EB80918005909166
:102FD00081050E940B0E80918005909181050E94D1
:102FE000B80D182F80918005909181050E945E0E8A
:102FF000112311F40C94D92B10917B058981803118
:1030000011F40C94E42BCE0101960E945F168117F7
:1030100018F480917B0509C08981803111F48CE01E
:1030200004C0CE0101960E945F1680937B058091BB
:103030007E058F5F80937E058981883211F40C9420
:10304000DD2B48F4803111F40C94DD2B823209F031
:1030500093CF0C94DD2B8B3311F40C94DD2B823445
:1030600009F08ACF0C94DD2B61E08BE00E945E0CAE
:103070000E94A61080918D0390918E03A0918F03E2
:10308000B09190038093890390938A03A0938B035C
:10309000B0938C0360E081E10E945E0C60E08FE001
:1030A0000E945E0C60E080E10E945E0C61E082E0C4
:1030B0000E945E0C61E083E00E945E0C61E084E0AF
:1030C0000E945E0C61E085E00E945E0C61E082E09F
:1030D0000E94110C61E083E00E94110C61E084E029
:1030E0000E94110C61E085E00E94110C84E690E0E2
:1030F0000E94510390E0909335018093340164E67F
:1031000070E080E090E00E94100D85E690E00E9463
:10311000510390E0909333018093320164E670E0B4
:1031200080E090E00E94100D88E690E00E9451033C
:1031300090E0909331018093300164E670E080E08C
:1031400090E00E94100D80E090E00E945103082F53
:1031500064E670E080E090E00E94100D81E090E075
:103160000E945103182F64E670E080E090E00E9416
:10317000100D612F70E0762F6627600F711D80E0C3
:1031800090E00E94083220E030E048EC52E40E94D7
:10319000603160934C0170934D0180934E01909388
:1031A0004F0182E090E00E945103082F64E670E036
:1031B00080E090E00E94100D83E090E00E945103B7
:1031C000182F64E670E080E090E00E94100D612FFF
:1031D00070E0762F6627600F711D80E090E00E94FE
:1031E000083220E030E048EC52E40E946031609305
:1031F00048017093490180934A0190934B0184E008
:1032000090E00E94510390E0909347018093460123
:1032100064E670E080E090E00E94100D85E090E0B0
:103220000E94510390E0909345018093440164E62D
:1032300070E080E090E00E94100D86E090E00E9437
:10324000510390E090933F0180933E0164E670E06B
:1032500080E090E00E94100D87E090E00E94510312
:10326000082F64E670E080E090E00E94100D88E096
:1032700090E00E945103182F64E670E080E090E037
:103280000E94100D612F70E0762F6627600F711D70
:1032900080E090E00E94083220E030E048EC52E408
:1032A0000E94603160933A0170933B0180933C012E
:1032B00090933D0189E090E00E945103082F64E65D
:1032C00070E080E090E00E94100D8AE090E00E94A3
:1032D0005103182F64E670E080E090E00E94100D2A
:1032E000812F90E0982F8827800F911D9093550192
:1032F000809354018BE090E00E945103082F64E614
:1033000070E080E090E00E94100D8CE090E00E9460
:103310005103182F64E670E080E090E00E94100DE9
:10332000812F90E0982F8827800F911D9093530153
:10333000809352018DE090E00E94510390E09093C1
:1033400037018093360164E670E080E090E00E94EF
:10335000100D409154015091550128EE33E0429FE9
:10336000C001439F900D529F900D1124092E000C17
:10337000AA0BBB0B80933F0590934005A09341059A
:10338000B0934205A0915201B091530120E63AEE6C
:103390000E949C3360933B0570933C0580933D05F0
:1033A00090933E058EE090E00E94510390E0909350
:1033B00061038093600364E670E080E090E00E9427
:1033C000100D8FE090E00E94510390E09093430134
:1033D0008093420164E670E080E090E00E94100D6E
:1033E00080E190E00E94510390E09093410180932E
:1033F000400164E670E080E090E00E94100D81E101
:1034000090E00E94510390E090933901809338013D
:1034100064E670E080E090E00E94100D8EE690E09F
:103420000E94510391E0811101C090E090937C03D0
:1034300064E670E080E090E00E94100D8FE690E07E
:103440000E94510391E0811101C090E090937B03B1
:1034500064E670E080E090E00E94100D88E790E064
:103460000E94510390E08053984F90933D038093C6
:103470003C0364E670E080E090E00E94100D89E774
:1034800090E00E94510390E090933F0380933E03AD
:1034900064E670E080E090E00E94100D8AE790E022
:1034A0000E94510390E0909343038093420364E6AB
:1034B00070E080E090E00E94100D8BE790E00E94A9
:1034C000510390E0909345038093440364E670E0D9
:1034D00080E090E00E94100D8CE790E00E94510384
:1034E00090E0909347038093460364E670E080E0A9
:1034F00090E00E94100D8DE790E00E94510390E053
:10350000909349038093480364E670E080E090E084
:103510000E94100D68E271E081E00E94321660E2C4
:1035200071E083E00E94321668E171E084E00E945D
:10353000321660E171E085E00E94321668E071E0C9
:1035400086E00E94321660E071E087E00E94321649
:1035500060E080E00E94BC0F68EB71E081E695E0DE
:103560000E94B70B61E080E00E94BC0F66EC71E046
:1035700081E695E00E94B70B68EB7BE080E090E08D
:103580000E94100D81E695E00E94900262E0809119
:1035900048050E945E0C80E398EFAFEFBFEF809389
:1035A0004C0590934D05A0934E05B0934F050E9496
:1035B0004A0D60938D0370938E0380938F039093D5
:1035C00090036093890370938A0380938B03909395
:1035D0008C0301E010E05DE2E52EF12C6CE2C62EDA
:1035E000D12C7BE2A72EB12C1092690310926803B4
:1035F0000E944A0D60936403709365038093660391
:10360000909367030E94921180919D0390919E0375
:10361000892B59F580910E0490910F0490939C038F
:1036200080939B0380910D0490E090939A03809384
:10363000990380910C0490E09093980380939703F2
:1036400080910A0490E09093960380939503809173
:10365000090490E09093940380939303809108046D
:1036600090E0909392038093910340918D03509149
:103670008E0360918F0370919003809189039091E4
:103680008A03A0918B03B0918C03481759076A07EE
:103690007B0710F40C94D4230E94530320916803F9
:1036A000309169032330310509F4A5C364F4809196
:1036B0008703909188032130310591F02230310544
:1036C00009F46BC17CC62530310509F436C60CF40B
:1036D00005C62630310509F072C60E9481076FC603
:1036E0004091620350916303009769F442305105A1
:1036F00008F072C630938803209387031092630307
:103700001092620337C08430910509F04AC0411518
:10371000510509F046C080910E0490910F049093DA
:1037200055038093540380910D0490E090935303CC
:103730008093520380910C0490E090935103809306
:10374000500380910A0490E090934F0380934E03BE
:103750008091090490E090934D0380934C038091F5
:10376000080490E090934B0380934A0330936303E3
:10377000209362038091640390916503A091660396
:10378000B09167038093830390938403A093850390
:10379000B093860368EC70E080E090E00E94100D2A
:1037A0000EC6452B29F41093630300936203E2CF06
:1037B000049711F00C94EA2B0E94921188248394B0
:1037C0008092620438E6932E9092840410926304EF
:1037D0001092850460E083E295E00E94DB0A0E947B
:1037E000041081E090E00E949A1083E295E00E942C
:1037F000920A806880930804809262049092840404
:10380000109263041092850460E083E295E00E94C8
:10381000DB0A6091080483E295E00E94DB0A0E94C3
:1038200004108091500390915203209154033091E1
:10383000550330930F0420930E0490930D0480934E
:103840000C040E944C110E940F118091130490915E
:103850001404069667E070E00E943D3380930B04E9
:103860000E94DB106AEF70E080E090E00E94100D93
:1038700080914A0390914C0320914E0320930A04B7
:1038800090930904809308040E94DB106AEF70E0B3
:1038900080E090E00E94100D809262049092840477
:1038A000109263041092850460E083E295E00E9428
:1038B000DB0A809108044AE0942E692D0E9431337E
:1038C000692F20E1829F600D1124606883E295E0FA
:1038D0000E94DB0A80910904692D0E943133692F0F
:1038E00030E1839F600D112483E295E00E94DB0AA2
:1038F00080910A04692D0E943133692F20E1829F53
:10390000600D11246F7383E295E00E94DB0A8091C1
:103910000B048F5F692D0E943133692F30E1839F43
:10392000600D112483E295E00E94DB0A80910C0473
:10393000692D0E943133692F20E1829F600D11248F
:1039400083E295E00E94DB0A80910D04692D0E94BC
:103950003133692F30E1839F600D112483E295E0BC
:103960000E94DB0A80910E04805D692D0E94313334
:10397000692F20E1829F600D112483E295E00E946F
:10398000DB0A0E94041068EC70E080E090E00E9486
:10399000100D0E94A6100C94EA2B009709F41CC588
:1039A00080906203909063038114910449F54C0167
:1039B00031E0831A91089092880380928703809166
:1039C000640390916503A0916603B09167038093AF
:1039D000830390938403A0938503B093860368ECDC
:1039E00070E080E090E00E94100D181419040CF4AF
:1039F000E6C486E090E09093880380938703DFC459
:103A00008130910559F580919D0390919E03009717
:103A100009F058C081E0881A91089092630380925F
:103A200062038091640390916503A0916603B09155
:103A300067038093830390938403A0938503B093DB
:103A4000860368EC70E080E090E00E94100D18148E
:103A500019040CF4D5C489E090E02FC0843091059E
:103A600009F0E1C380919D0390919E03009711F0AE
:103A70000C943E2D21E0821A91089092630380926B
:103A800062038091640390916503A0916603B091F5
:103A900067038093830390938403A0938503B0937B
:103AA000860368EC70E080E090E00E94100D18142E
:103AB00019040CF45BC586E090E090936303809357
:103AC00062037DC4019709F07AC4F4013197ED30A7
:103AD000F10508F074C4EC5CFF4F40906403509013
:103AE000650360906603709067030C9487332DEC38
:103AF0003CEC4CEC5DE360914C0170914D01809188
:103B00004E0190914F010E94EF3060934C017093F1
:103B10004D0180934E0190934F0140928303509248
:103B20008403609285037092860320E030E040E2D7
:103B300052E40E94BA3287FD2DCE80E090E0A0E2F0
:103B4000B2E480934C0190934D01A0934E01B09349
:103B50004F0120CE2DEC3CEC4CEC5DE36091480134
:103B60007091490180914A0190914B010E94EF3080
:103B7000609348017093490180934A0190934B01EF
:103B8000409283035092840360928503709286036F
:103B900020E030E040E050E40E94BA3287FDFACDE8
:103BA00080E090E0A0E0B0E4F9C1809146019091FE
:103BB0004701019690934701809346014092830309
:103BC0005092840360928503709286038634910537
:103BD0000CF4E0CD86E490E000C280914401909125
:103BE00045010196909345018093440140928303DF
:103BF0005092840360928503709286030A970CF4B6
:103C0000C9CD8AE090E09093450180934401C2CDF4
:103C100080914201909143010196909343018093DA
:103C20004201409283035092840360928503709214
:103C300086038D3691400CF4ADCD8DE691E09093E6
:103C4000430180934201A6CD8091400190914101B2
:103C500001969093410180934001409283035092DA
:103C6000840360928503709286038D3691400CF434
:103C700091CD8DE691E090934101809340018ACDF2
:103C8000809160039091610301969093610380930A
:103C90006003409283035092840360928503709284
:103CA0008603843691050CF475CD84E690E067C0F8
:103CB00080918103909182030196893091050CF4E3
:103CC000FEC11092820310928103FDC12DEC3CECE9
:103CD0004CEC5DE360913A0170913B0180913C01B5
:103CE00090913D010E94EF3060933A0170933B0147
:103CF00080933C0190933D01409283035092840352
:103D0000609285037092860320E030E044E752E43D
:103D10000E94BA3287FD3ECD80E090E0A4E7B2E495
:103D200014C28091540190915501019690935501D0
:103D300080935401409283035092840360928503E0
:103D400070928603843893400CF421C284E893E097
:103D50001AC28091380190913901019690933901EE
:103D600080933801409283035092840360928503CC
:103D70007092860303970CF40DCD83E090E090934E
:103D800061038093600306CD8091520190915301AD
:103D90000196909353018093520140928303509275
:103DA000840360928503709286038C3291400CF4F8
:103DB00029C28CE291E0909353018093520122C278
:103DC000409283035092840360928503709286032D
:103DD0008091360190913701009729F410933701B3
:103DE0000093360176C2019709F073C21092370131
:103DF000109236016EC280918703909188030097DC
:103E000009F4EAC2809062039090630381149104E4
:103E100041F54C012FEF821A920A9092880380920A
:103E200087038091640390916503A0916603B0912C
:103E300067038093830390938403A0938503B093D7
:103E4000860368EC70E080E090E00E94100D37E09F
:103E5000831691040CF4B3C2109388030093870374
:103E6000AEC28130910509F009C380919D03909104
:103E70009E03009739F58FEF881A980A9092630392
:103E8000809262038091640390916503A091660320
:103E9000B09167038093830390938403A093850379
:103EA000B093860368EC70E080E090E00E94100D13
:103EB0002AE0821691040CF4A3C2109363030093CA
:103EC00062037DC2019709F07AC2F4013197ED30A7
:103ED000F10508F074C2EF5BFF4F4090640350900F
:103EE000650360906603709067030C9487332DEC34
:103EF0003CEC4CEC5DE360914C0170914D01809184
:103F00004E0190914F010E94EE3060934C017093EE
:103F10004D0180934E0190934F0140928303509244
:103F20008403609285037092860320E030E04CE0C9
:103F300052E40E945B3118160CF42CCC80E090E027
:103F4000ACE0B2E4FECD2DEC3CEC4CEC5DE36091DA
:103F500048017091490180914A0190914B010E9462
:103F6000EE30609348017093490180934A01909329
:103F70004B014092830350928403609285037092B8
:103F800086032DEC3CEC4CEC5DE30E945B31181693
:103F90000CF400CC8DEC9CECACECBDE380934801C0
:103FA00090934901A0934A01B0934B01F3CB8091C8
:103FB00046019091470101979093470180934601F4
:103FC000409283035092840360928503709286032B
:103FD0000B970CF0DFCB8AE090E090934701809341
:103FE0004601D8CB8091440190914501019790936F
:103FF0004501809344014092830350928403609270
:1040000085037092860302970CF0C4CB1093450190
:1040100000934401BFCB80914201909143010197ED
:104020009093430180934201409283035092840312
:10403000609285037092860302970CF0ABCB1093CD
:10404000430100934201A6CB809140019091410130
:1040500001979093410180934001409283035092D5
:104060008403609285037092860302970CF092CBD2
:1040700010934101009340018DCB8091600390919A
:1040800061030197909361038093600340928303DF
:1040900050928403609285037092860302970CF01D
:1040A00079CB109361030093600374CB80918103FB
:1040B00090918203019797FF02C088E090E090936F
:1040C000820380938103E0918103F0918203EE0FDC
:1040D000FF1FE05AFE4F8081918190933F018093B2
:1040E0003E01409283035092840360928503709254
:1040F000860350CB2DEC3CEC4CEC5DE360913A0137
:1041000070913B0180913C0190913D010E94EE3005
:1041100060933A0170933B0180933C0190933D0181
:1041200040928303509284036092850370928603C9
:1041300020E030E040E851E40E945B3118160CF4B6
:1041400029CB80E090E0A0E8B1E480933A0190931D
:104150003B01A0933C01B0933D011CCB80915401E5
:10416000909155010197909355018093540140928D
:1041700083035092840360928503709286030697AE
:1041800034F485E090E09093550180935401409180
:1041900054015091550128EE33E0429FC001439FE6
:1041A000900D529F900D1124092E000CAA0BBB0BF1
:1041B00080933F0590934005A0934105B09342053D
:1041C000E9CA8091380190913901019790933901A2
:1041D000809338015BCF80915201909153010197F8
:1041E0009093530180935201409283035092840331
:1041F0006092850370928603029724F41093530112
:1042000000935201A0915201B091530120E63AEE81
:104210000E949C3360933B0570933C0580933D0561
:1042200090933E05B7CA8530910509F089C0809109
:104230009D0390919E03009711F40C94F42B019729
:1042400009F0BDC082E08816910411F40C944E2C44
:1042500023E08216910411F40C94852C8A94892809
:1042600009F0ADC080917D0390917E03019684306A
:10427000910514F083E090E090937E0380937D039A
:10428000E0917D03F0917E03EE0FFF1FEA5AFE4F8F
:1042900090808181909234018093350180916403F4
:1042A00090916503A0916603B091670380938303A7
:1042B00090938403A0938503B093860368EC70E029
:1042C00080E090E00E94100D692D84E690E00E944D
:1042D0004F0364E670E080E090E060CA20918703BD
:1042E000309188038091620390916303232B79F4CA
:1042F000009729F410936303009362034BCA01975C
:1043000009F06AC0109263031092620343CA892BBA
:1043100009F455C080919D0390919E03009729F464
:1043200010939E0300939D0335CA019709F047C07F
:1043300010929E0310929D032DCA0E94A1073FC0B8
:104340008630910511F40C941A2C8230910509F0F5
:10435000C3C080919D0390919E03892B09F0A7C053
:104360008A94892809F0A3C080907F0390908003ED
:104370002FEF821A920A9092800380927F0380919D
:10438000640390916503A0916603B09167038093E5
:10439000830390938403A0938503B093860368EC12
:1043A00070E080E090E00E94100D35E083169104EB
:1043B00034F084E090E09093800380937F038091B9
:1043C0008703909188038730910508F0A6C1FC010E
:1043D000E25BFF4F0C9487338091870390918803B1
:1043E00020916203309163032115310521F02130C2
:1043F0003105C1F09BC110927A031092790396C1E6
:104400008091870390918803E0916203F0916303A8
:10441000EE30F10508F08AC1EB5AFF4F0C94873358
:104420002AE030E030937A03209379037FC12BE0B8
:1044300030E0F8CF2CE030E0F5CF2DE030E0F2CFE7
:104440002EE030E0EFCF2FE030E0ECCF20E130E0A5
:10445000E9CF21E130E0E6CF22E130E0E3CF23E114
:1044600030E0E0CF24E130E0DDCF25E130E0DACF0D
:1044700026E130E0D7CF27E130E0D4CF843091057A
:1044800009F44AC08530910509F4A4C0863091052D
:1044900009F4EFC08230910511F00C94862E8091C2
:1044A0009D0390919E03892B11F40C94562E8091BC
:1044B0008703909188032091620330916303211553
:1044C000310539F02130310509F030C129E130E002
:1044D000A9CF28E130E0A6CF039709F070CF8091F3
:1044E0009D0390919E03892B11F40C94472C80918D
:1044F0008703909188032091620330916303211513
:10450000310539F02130310509F010C12FE130E0DB
:1045100089CF2EE130E086CF80919D0390919E035C
:10452000009711F00C94E02D3FEF831A930A9092BC
:104530006303809262038091640390916503A0916C
:104540006603B09167038093830390938403A093E1
:104550008503B093860368EC70E080E090E00E94F1
:10456000100D87E0881691040CF0A7CC809187038A
:1045700090918803E0916203F0916303E730F105C5
:1045800008F0CEC0ED59FF4F0C94873328E230E09D
:1045900002C029E230E030937A0320937903C0C04F
:1045A0002AE230E0F8CFB0927A03A0927903B8C043
:1045B000D0927A03C0927903B3C0F0927A03E0926A
:1045C0007903AEC0AEE26A2E712C70927A036092CB
:1045D0007903A6C080919D0390919E03009711F0EE
:1045E0000C94AC2C2FEF821A920A90926303809263
:1045F00062038091640390916503A0916603B0917A
:1046000067038093830390938403A0938503B093FF
:10461000860368EC70E080E090E00E94100D37E0C7
:10462000831691040CF049CC809187039091880304
:1046300020916203309163032130310599F03CF4FD
:10464000232B09F073C0F2E38F2E912C61C022302E
:10465000310559F02330310509F068C075E3872E24
:10466000912C56C023E330E0DDCEE4E36E2E712CB6
:1046700047C080919D0390919E03009711F00C9488
:10468000EE2C8FEF881A980A90926303809262034F
:104690008091640390916503A0916603B0916703D4
:1046A0008093830390938403A0938503B093860340
:1046B00068EC70E080E090E00E94100D24E082162B
:1046C00091040CF0FACB809187039091880320919C
:1046D0006203309163032130310579F02CF4232BF0
:1046E00029F52CE330E09ECE2230310571F02330E5
:1046F0003105E1F42FE330E095CE6DE3662E712CA9
:1047000070927A036092790311C05EE3852E912C3A
:1047100090927A038092790309C08430910531F434
:104720002091620330916303232BF1F540916403E0
:104730005091650360916603709167032090830335
:104740003090840340908503509086033A014B01DA
:10475000621873088408950829E962162AE372062C
:104760008104910408F14093830350938403609380
:10477000850370938603892B79F48091620390916D
:104780006303892B49F410928803109287031093D6
:1047900063030093620308C010928803109287039A
:1047A0001092630310926203E0917903F0917A030F
:1047B000E034F10508F0F9C7E659FF4F0C94873350
:1047C0000E948D040E94D40381E695E00E9490022D
:1047D00060E080E00E94BC0F67ED71E081E695E04B
:1047E0000E94B70B60915C0370915D0380915E0342
:1047F00090915F030E9462156BED71E081E695E098
:104800000E94B70B80915A0390915B030E941E1285
:1048100060EE71E081E695E00E94B70B61E080E018
:104820000E94BC0F63EE71E081E695E00E94B70B39
:1048300060915603709157038091580390915903EA
:104840000E94621567EE71E081E695E00E94B70B69
:104850000E948F060E94F1050E9469050E9465086A
:10486000A5C10E948D040E94D4030E9492110E944F
:104870008F060E94F1050E9469050E9465089091CB
:10488000080480917803981709F490C181E695E0B7
:104890000E94900261E084E00E94BC0F80910A04B3
:1048A0008A3020F480E090E00E941E1240910A04B9
:1048B00050E060E070E02AE081E695E00E946E0B37
:1048C00069EE71E081E695E00E94B70B80910904E2
:1048D0008A3020F480E090E00E941E12409109048A
:1048E00050E060E070E02AE081E695E00E946E0B07
:1048F00069EE71E081E695E00E94B70B80910804B3
:104900008A3020F480E090E00E941E12409108045A
:1049100050E060E070E02AE081E695E00E946E0BD6
:1049200080917C03882309F43DC180917B03882317
:1049300009F4CCC02091080430E040914803509124
:104940004903C901841B950B241735074CF090933C
:10495000770380937603109275031092740309C055
:10496000CC9690937703809376031093750300930E
:1049700074038091090490E02091740330917503D1
:104980004091460350914703BC01621B730B841B8B
:10499000950B641775075CF0821B930B9093730360
:1049A0008093720310927103109270030BC0CC9627
:1049B000821B930B90937303809372031093710384
:1049C0000093700380910A0490E02091700330916D
:1049D00071034091440350914503BC01621B730B6A
:1049E000841B950B641775075CF0821B930B9093E7
:1049F0006F0380936E0310926D0310926C030BC0D3
:104A00004896821B930B90936F0380936E031093D1
:104A10006D0300936C0320910C0430E080906C03D4
:104A200090906D038091420390914303A90148192E
:104A30005909481759076CF0281B390B28193909EF
:104A4000309341032093400310926B0310926A034A
:104A50004DC0E0910D044E2F50E0FA013197EC303B
:104A6000F10508F043C0E655FF4F281B390B0C94A5
:104A70008733E0910E04F0910F04CF0183709927E2
:104A8000892B39F4CF0164E670E00E943D33892B15
:104A900039F4CF0160E971E00E943D33892B19F4AC
:104AA000235E3F4F08C0245E3F4F05C0225E3F4F4C
:104AB00002C0215E3F4F28193909309341032093EA
:104AC000400310936B0300936A0310C010924103DC
:104AD0001092400310926F0310926E0310927303B2
:104AE00010927203109277031092760360E080E0D8
:104AF0000E94BC0F80914003909141030A9724F4D7
:104B000080E090E00E941E1280914003909141034A
:104B10000E941E126BEE71E081E695E00E94B70BD9
:104B200080916E0390916F030A9724F480E090E0E7
:104B30000E941E1280916E0390916F030E941E12BC
:104B400069EE71E081E695E00E94B70B80917203F7
:104B5000909173030A9724F480E090E00E941E1263
:104B600080917203909173030E941E1269EE71E0AE
:104B700081E695E00E94B70B8091760390917703D0
:104B80000A9724F480E090E00E941E128091760340
:104B9000909177030E941E1264E072E081E695E036
:104BA0000E94B70B80910804809378030E948107CC
:104BB00095C581E695E00E94900260E080E00E9449
:104BC000BC0F8DE094E00E94471561E080E00E94F8
:104BD000BC0F8CEF93E06EC481E695E00E949002DA
:104BE00060E080E00E94BC0F8BEE93E00E944715CE
:104BF00061E080E00E94BC0F86EE93E00E944715C2
:104C000060914C0170914D0180914E0190914F0146
:104C1000D7C081E695E00E94900260E080E00E94AB
:104C2000BC0F85ED93E00E94471561E080E00E9493
:104C3000BC0F8FEC93E00E94471560914801709182
:104C4000490180914A0190914B01BAC081E695E0FB
:104C50000E94900260E080E00E94BC0F8EEB93E027
:104C60000E94471561E080E00E94BC0F89EB93E051
:104C70000E944715809146019091470118C081E636
:104C800095E00E94900260E080E00E94BC0F88EAFC
:104C900093E00E94471561E080E00E94BC0F82EA29
:104CA00093E00E94471580914401909145010E9434
:104CB0001E1266E072E069C581E695E00E949002EE
:104CC00060E080E00E94BC0F81E993E00E944715FC
:104CD00061E080E00E94BC0F8FE893E00E944715DE
:104CE000809142019091430131C081E695E00E949C
:104CF000900260E080E00E94BC0F8EE793E00E948B
:104D0000471561E080E00E94BC0F8CE793E00E94B1
:104D10004715809140019091410118C081E695E0CE
:104D20000E94900260E080E00E94BC0F8BE693E05E
:104D30000E94471561E080E00E94BC0F89E693E085
:104D40000E94471580916003909161030E941E129A
:104D500067E072E01AC581E695E00E94900260E08B
:104D600080E00E94BC0F88E593E00E94471561E057
:104D700080E00E94BC0F80913E0190913F010E9413
:104D80001E1269E172E001C581E695E00E94900281
:104D900060E080E00E94BC0F87E493E00E9447152A
:104DA00061E080E00E94BC0F82E493E00E9447151E
:104DB00060913A0170913B0180913C0190913D01DD
:104DC0000E94621564EF71E0E0C481E695E00E9404
:104DD000900260E080E00E94BC0F81E393E00E94BB
:104DE000471561E080E00E94BC0F89E293E00E94D9
:104DF000471580915401909155010E941E126CE25A
:104E000072E0C3C481E695E00E94900260E080E019
:104E10000E94BC0F8AE193E00E94471561E080E0A8
:104E20000E94BC0F88E193E00E94471580913801F1
:104E3000909139010E941E1263E072E0A6C481E6DF
:104E400095E00E94900260E080E00E94BC0F87E045
:104E500093E00E94471561E080E00E94BC0F8FEF55
:104E600092E00E94471580915201909153010E9457
:104E70001E1263E372E089C481E695E00E9490020D
:104E800060E080E00E94BC0F8EEE92E00E94471529
:104E900061E080E00E94BC0F809136019091370163
:104EA000009709F46DC4019709F073C46CC481E6DE
:104EB00095E00E94900260E080E00E94BC0F8DEDC2
:104EC00092E00E94471561E080E00E94BC0F8CECEC
:104ED00092E0F0C281E695E00E94900260E080E0FE
:104EE0000E94BC0F8BEB92E00E94471561E080E0CE
:104EF0000E94BC0F85EB92E00E94471580917F03D2
:104F0000909180030E941E1280919D0390919E03B8
:104F1000892B19F46CE572E004C420E030E048EC21
:104F200052E460914C0170914D0180914E0190913D
:104F30004F010E94BF320E94D231572E80917F03D1
:104F40009091800324E1289F4001299F900C112417
:104F5000C4010E944F0364E670E080E090E00E948C
:104F6000100D652DC40101960E944F0364E670E0A8
:104F700080E090E00E94100D20E030E048EC52E428
:104F8000609148017091490180914A0190914B01D3
:104F90000E94BF320E94D231572EC40102960E9455
:104FA0004F0364E670E080E090E00E94100D652DF4
:104FB000C40103960E944F0364E670E080E090E035
:104FC0000E94100D60914601C40104960E944F0397
:104FD00064E670E080E090E00E94100D6091440172
:104FE000C40105960E944F0364E670E080E090E003
:104FF0000E94100D60913E01C40106960E944F036D
:1050000064E670E080E090E00E94100D20E030E067
:1050100048EC52E460913A0170913B0180913C016F
:1050200090913D010E94BF320E94D231572EC4019F
:1050300007960E944F0364E670E080E090E00E94D3
:10504000100D652DC40108960E944F0364E670E0C0
:1050500080E090E00E94100D609154015090550145
:10506000C40109960E944F0364E670E080E090E07E
:105070000E94100D652DC4010A960E944F0364E63C
:1050800070E080E090E00E94100D6091520150901D
:105090005301C4010B960E944F0364E670E080E068
:1050A00090E00E94100D652DC4010C960E944F03E4
:1050B00064E670E080E090E00E94100D609136019F
:1050C000C4010D960E944F0364E670E080E090E01A
:1050D0000E94100D60916003C4010E960E944F0360
:1050E00064E670E080E090E00E94100D6091420163
:1050F000C4010F960E944F0364E670E080E090E0E8
:105100000E94100D60914001C40140960E944F031F
:1051100064E670E080E090E00E94100D609138013C
:10512000C40141960E944F0364E670E080E090E085
:105130000E94100D67E672E0F4C281E695E00E94DD
:10514000900260E080E00E94BC0F84EA92E00E943E
:10515000471561E080E00E94BC0F83E992E0AAC19C
:1051600081E695E00E94900260E080E00E94BC0F22
:1051700082E892E00E94471561E080E00E94BC0F47
:105180008CE792E00E94471580917F039091800305
:105190000E941E1280919D0390919E03892B09F419
:1051A000B9CE80917F039091800324E1289F400134
:1051B000299F900C1124C4010E945103482E64E6DB
:1051C00070E080E090E00E94100DC40101960E9402
:1051D0005103582E64E670E080E090E00E94100DCC
:1051E000652D70E0762F6627640D711D80E090E0DC
:1051F0000E94083220E030E048EC52E40E94603126
:1052000060934C0170934D0180934E0190934F0138
:10521000C40102960E945103482E64E670E080E0CB
:1052200090E00E94100DC40103960E945103582E75
:1052300064E670E080E090E00E94100D652D70E063
:10524000762F6627640D711D80E090E00E94083281
:1052500020E030E048EC52E40E9460316093480165
:105260007093490180934A0190934B01C4010496C5
:105270000E94510390E0909347018093460164E6B9
:1052800070E080E090E00E94100DC40105960E943D
:10529000510390E0909345018093440164E670E0EF
:1052A00080E090E00E94100DC40106960E94510318
:1052B00090E090933F0180933E0164E670E080E0CF
:1052C00090E00E94100DC40107960E945103482EE1
:1052D00064E670E080E090E00E94100DC401089642
:1052E0000E945103582E64E670E080E090E00E9436
:1052F000100D652D70E0762F6627640D711D80E01E
:1053000090E00E94083220E030E048EC52E40E9435
:10531000603160933A0170933B0180933C0190931C
:105320003D01C40109960E945103482E64E670E0D5
:1053300080E090E00E94100DC4010A960E94510383
:10534000582E64E670E080E090E00E94100D852DFC
:1053500090E0982F8827840D911D9093550180939C
:105360005401C4010B960E945103482E64E670E07C
:1053700080E090E00E94100DC4010C960E94510341
:10538000582E64E670E080E090E00E94100D852DBC
:1053900090E0982F8827840D911D9093530180935E
:1053A0005201C4010D960E94510390E09093370181
:1053B0008093360164E670E080E090E00E94100D7A
:1053C000C4010E960E94510390E090936103809374
:1053D000600364E670E080E090E00E94100DC4017C
:1053E0000F960E94510390E09093430180934201F5
:1053F00064E670E080E090E00E94100DC4014096E9
:105400000E94510390E0909341018093400164E633
:1054100070E080E090E00E94100DC40141960E946F
:10542000510390E0909339018093380164E670E075
:1054300080E090E00E94100D409154015091550180
:1054400028EE33E0429FC001439F900D529F900D84
:105450001124092E000CAA0BBB0B80933F059093DF
:105460004005A0934105B0934205A0915201B0912F
:10547000530120E63AEE0E949C3360933B05709303
:105480003C0580933D0590933E0562E772E049C17B
:1054900081E695E00E94900260E080E00E94BC0FEF
:1054A0008BE692E00E94471561E080E00E94BC0F0D
:1054B0008AE592E00E94471501C181E695E00E94CD
:1054C000900260E080E00E94BC0F89E492E00E94BC
:1054D000471561E085E00E94BC0F809154039091D4
:1054E0005503D3C081E695E00E94900260E080E021
:1054F0000E94BC0F88E392E00E94471561E086E0BD
:105500000E94BC0F8091520390915303BEC081E66C
:1055100095E00E94900260E080E00E94BC0F87E26C
:1055200092E00E94471561E086E00E94BC0F8091E6
:10553000500390915103A9C081E695E00E9490022A
:1055400060E080E00E94BC0F86E192E00E94471577
:1055500061E086E00E94BC0F80914E0390914F0362
:1055600094C081E695E00E94900260E080E00E9495
:10557000BC0F85E092E00E94471561E086E00E9442
:10558000BC0F80914C0390914D037FC081E695E064
:105590000E94900260E080E00E94BC0F84EF91E0E6
:1055A0000E94471561E086E00E94BC0F80914A038B
:1055B00090914B036AC081E695E00E94900260E002
:1055C00080E00E94BC0F83EE91E00E94471561E0ED
:1055D00080E00E94BC0F6DE772E06CC081E695E050
:1055E0000E94900260E080E00E94BC0F82ED91E09A
:1055F0000E94471561E080E00E94BC0F6EE872E0F7
:1056000081E695E00E94B70B8091340190913501BD
:1056100035C081E695E00E94900260E080E00E9443
:10562000BC0F81EC91E00E94471561E080E00E9490
:10563000BC0F6EE872E081E695E00E94B70B8091A6
:105640003201909133011AC081E695E00E949002E8
:1056500060E080E00E94BC0F80EB91E00E94471563
:1056600061E080E00E94BC0F6EE872E081E695E0A8
:105670000E94B70B8091300190913101019718166B
:1056800019061CF06BE972E080C00E941E1281C0F6
:1056900081E695E00E94900260E080E00E94BC0FED
:1056A0008FE991E00E94471561E080E00E94BC0F05
:1056B0006FE972E081E695E00E94B70B61E08FE050
:1056C0000E94BC0F62EF71E081E695E00E94B70B8B
:1056D00064E670E080E090E00E94100D10929E035E
:1056E00010929D0362C081E695E00E94900260E006
:1056F00080E00E94BC0F8EE891E00E9447158091E7
:105700009D0390919E030E94A50880919D03909116
:105710009E03892B59F461E080E00E94BC0F60EB8E
:1057200072E081E695E00E94B70B39C00E94BB0889
:105730003CC081E695E00E94900260E080E00E941B
:10574000BC0F8DE791E00E94471561E080E00E9468
:10575000BC0F80917C0312C081E695E00E9490020C
:1057600060E080E00E94BC0F8CE691E00E9447154B
:1057700061E080E00E94BC0F80917B03811103C037
:105780006AE372E002C06BE472E081E695E00E9499
:10579000B70B80919D0390919E030E94A50864E63B
:1057A00070E080E090E00E94100D0E94300A0C949E
:1057B000F41A00937A050C94FC1780917F058F5F93
:1057C00080937F050C94BC171D3010F00C940918C1
:1057D0000C940F18109263031092620310929E03B0
:1057E00010929D030C94BA1B31E0831A9108909299
:1057F0006303809262038091640390916503A0919A
:105800006603B09167038093830390938403A0930E
:105810008503B093860368EC70E080E090E00E941E
:10582000100D1814190414F40C94142385E090E05E
:105830000C945D1D80919D0390919E03009709F04B
:1058400071C081E0881A910890926303809262038C
:105850008091640390916503A0916603B091670302
:105860008093830390938403A0938503B09386036E
:1058700068EC70E080E090E00E94100D18141904AC
:1058800014F40C94632383E090E00C945D1D8A94DF
:10589000892811F00C9477220C94B42180917D0317
:1058A00090917E0301968430910514F083E090E09E
:1058B00090937E0380937D03E0917D03F0917E03BE
:1058C000EE0FFF1FEA5AFE4F9080818190923201C5
:1058D000809333018091640390916503A0916603E6
:1058E000B09167038093830390938403A09385030F
:1058F000B093860368EC70E080E090E00E94100DA9
:10590000692D85E690E00C94672180917D0390914C
:105910007E03019684309105D4F090927E038092AC
:105920007D0333C0019711F00C94DF2182E08816CB
:10593000910409F46BC023E08216910409F48AC033
:105940008A94892811F00C94DF210C94692190939A
:105950007E0380937D0319C0019711F00C94DF2121
:1059600032E08316910409F4F7C183E088169104AC
:1059700009F0DEC180917D0390917E03019797FF2E
:10598000E6CF10927E0310927D03E0917D03F091AB
:105990007E03EE0FFF1FEA5AFE4F908081819092A6
:1059A0003001809331018091640390916503A0914F
:1059B0006603B09167038093830390938403A0935D
:1059C0008503B093860368EC70E080E090E00E946D
:1059D000100D692D88E690E00C946721019711F075
:1059E0000C94DF2132E083169104F9F48091640372
:1059F00090916503A0916603B09167038093830340
:105A000090938403A0938503B093860380917C03D5
:105A1000811104C081E080937C0302C010927C035A
:105A200060917C038EE690E025C083E088169104A7
:105A300009F09EC18091640390916503A091660373
:105A4000B09167038093830390938403A0938503AD
:105A5000B093860380917B03811106C081E080931F
:105A60007B030E94BB0802C010927B0360917B0302
:105A70008FE690E00E944F030C94CA1B019711F02F
:105A80000C94DF2123E08216910409F43FC054F402
:105A900081E088169104A1F022E082169104E9F0D9
:105AA0000C94DF2135E08316910409F461C00CF4F5
:105AB00046C026E08216910409F473C00C94DF21DD
:105AC00080919B0390919C0301968F3E37E0930752
:105AD0000CF4A3C08EEE97E0A0C080919903909142
